:02000004080AE8
:1000000000000A082C730A0800000600060005011B
:0800100004024E040000000090
:1000180058670A0809480A4908B5884205D0094AB4
:10002800824202D0121A04F07BF90748074A0021DD
:10003800121A04F080F9064808BD00BF000300202A
:10004800A4710A0860040020600400200C0B002042
:100058000C0B002070B502F0E7FD074B074C1E465D
:10006800E41AA4080025A54204D056F8253098477C
:100078000135F8E770BD00BF64710A089C710A0871
:1000880000F074BF08B500F053F9BDE8084002F06D
:100098008DBD01F07FBC01F085BC0078B0FA80F01E
:1000A80040097047012303707047000008B50449F0
:1000B80002F003FA18B1034B03221A70012008BD9D
:1000C800F26B0A08B304002008B5074B1B784BB144
:1000D8000121062002F009FEBDE8084000210620A3
:1000E80002F003BE08BD00BF0003002001F024BADF
:1000F80001F02ABA37B505469DF8184023438DF814
:1001080000303C2301F01CFE284603B030BD00003F
:1001180010B58CB002F0CAFA3B4B002218603B4B7A
:100128003B4903A81A6002F0D3FC03A802F0AEFC16
:10013800041E04DD3749384804F038F910E0052377
:1001480000934FF0FF3200236FF07E0101F06AFC4C
:10015800324A234652F8202031492F4801F032FC18
:10016800304801F074F92F4801F09AF90028FAD1C3
:100178002C4801F06CF903F049FD2B4903F04EFEC1
:10018800044603F05DFF294B29491860204603F017
:1001980091FD284903F042FE4FF0844103F082FCB0
:1001A80003F04EFF244A03460821244801F022FCAC
:1001B8001C4801F075F90028FAD11A4801F01CF919
:1001C8006FF4A0721E4C8218E42A0346206004D9FA
:1001D8001C4A14211C4801F00DFC0523009340F231
:1001E800262200234FF4AF71206801F01BFC23681E
:1001F8000B4A0093154B142153F82030124801F094
:10020800F9FB01200CB010BDB4040020F404002058
:10021800D80900206C670A08F80400203003002081
:1002280072670A082005002000002041D004002041
:10023800000010410000A04079670A0889040020E6
:10024800D40400207D670A08970400205803002082
:1002580008B501F059F9054B1B68C01A044B1B6817
:10026800984234BF0020012008BD00BF0C050020C3
:100278001C03002008B5FFF7EBFF18B1BDE80840E4
:10028800FFF7E6BF01F0FEFAF5E738B50468054662
:100298007CB16368013B63605BB9236820469B6857
:1002A8009847A368013BA3601BB923682046DB6815
:1002B8009847284638BD000010B50121C6B0062071
:1002C80002F013FD0021062002F00FFD104B002460
:1002D8001C70104B104A1B684FF4807102930F4B2F
:1002E80006A801930E4B1B6800930E4B1B6801F088
:1002F80081FB0D4B06AA1B780C4904A88DF8004019
:10030800FFF7F8FE05A8FFF7C0FF46B010BD00BF15
:1003180000030020D00400208E670A086E04002025
:10032800EC040020D404002087040020C9670A08D0
:100338002DE9FF41834C2378013B062B00F2FA821A
:10034800DFE813F01B020700390093004201860121
:10035800CD0102F0ABF97C4B1A781D46904209D0CA
:100368007A4E0023337002F0D9FC794B3178186843
:10037800FFF7BEFE02F090F9764E3378984200F00F
:10038800D98202F089F9307002F090F9287002F0F1
:1003980097F9714B187003232370704B1B78002B4F
:1003A80000F0C882FFF766FF6D4B00221B788DF8BE
:1003B80000206C4AB9E0FFF7ABFE684D064668B905
:1003C800012323702B78002B00F0B482FFF752FF33
:1003D800634B654A1B788DF80060A6E003226349E9
:1003E800634804F00EF858B108226249604804F0E6
:1003F80008F828B10B2260495D4804F002F8E0B91A
:100408005E495F4803F0D2FF5E4B00261E602B78E2
:100418008BB1FFF72FFF524B5B4A1B785B4902A851
:100428008DF80060FFF766FE03A8FFF72EFF01F0C6
:100438006BF8574B1860072315E02B7893B1FFF73B
:1004480019FF474B00221B7850498DF8002002A85D
:10045800504AFFF74FFE03A8FFF717FF01F054F8C3
:100468004B4B18600423237064E2FFF703FF052356
:100478002370494A374B12781B78384D9342414EC6
:1004880003D346490978994217D245493C4803F0B5
:100498008DFF2B7863B1324B00221B788DF800203A
:1004A800404A02A83949FFF725FE03A8FFF7EDFEE9
:1004B80000233360072323702CE03B4909789942D5
:1004C80013D1214908783949097888420DD138492A
:1004D8002B4803F06BFF2B78002BE9D0204B002230
:1004E8001B788DF80020334ADBE733490F7867B96A
:1004F8003249234803F05AFF2B78002BD8D0184BE9
:100508002F4A1B788DF80070CBE793420CBF052368
:10051800012333602B787BB12378052B0CD1104B4A
:1005280000221B788DF80020264A02A81749FFF7F9
:10053800E1FD03A8FFF7A9FE00F0E6FF144B1860E1
:10054800F8E100BFB304002088040020DA0400208A
:1005580018030020DB04002009050020F004002017
:1005680087040020D9670A08E7670A0833680A0879
:100578009704002003680A080C680A0818680A0823
:100588006E040020EC04002023680A08E1670A08CA
:100598000C05002037680A0864040020E8040020DD
:1005A8004E680A0842680A08B8040020B20400200D
:1005B80057680A0873680A08D90400209B680A0863
:1005C8008F680A08A7680A0800F09EFF954B964DA9
:1005D8001A68964B1B681344984202D2944B1B68C6
:1005E8002BB306232370934B1968934B186803F0B9
:1005F8001DFDE0B19149924803F0D8FE914B0026C9
:100608001E602B788BB1FFF735FE8F4B8F4A1B7816
:100618008F4902A88DF80060FFF76CFD03A8FFF76B
:1006280034FE00F071FF8B4B1860072323702B7882
:10063800002B00F07F812378062B40F07B81FFF7A9
:1006480019FE814B00221B788DF80020824A6CE746
:10065800824D7C4E2F78002F34D17F49784803F0A3
:10066800A5FE714B1B788BB1FFF704FE764B7C4AD5
:100678001B78774902A88DF80070FFF73BFD03A8A7
:10068800FFF703FE00F040FF724B18603368ABB110
:100698000121062002F029FB0021062002F025FB9B
:1006A8000121022002F021FB0121072002F01DFB9D
:1006B80001232B7000F028FF6A4B18602B78002B61
:1006C80000F0388100F020FF674B32681968654BED
:1006D8001B6801FB0233984280F0DE802AE1634DFB
:1006E800634E2F78A8464FB900F00EFF4D4B377078
:1006F800186001232B70FFF7DFFD1BE13578BDB1D2
:10070800494B1B7893B1FFF7B5FD4F4B00221B787F
:100718004F498DF8002002A8564AFFF7EBFC03A8C2
:10072800FFF7B3FD00F0F0FE4A4B186002231FE00C
:1007380000F0EAFE3B4B1A683C4B1B681344984296
:10074800C0F0F880384B1B788BB1FFF793FD3E4B18
:10075800494A1B783E4902A88DF80050FFF7CAFCA9
:1007680003A8FFF792FD00F0CFFE3A4B1860012373
:100778002370002388F80030DCE03C4B3F4F1E78A4
:10078800002E43D13E4DDFF8A0802A78032A23D9D2
:100798002E7002F0C3FA3B4B29781868FFF7A8FCC3
:1007A80001F07AFF384B187098F800308BB1FFF7DA
:1007B80061FD254B354A1B78254902A88DF8006054
:1007C800FFF798FC03A8FFF760FD00F09DFE214BA2
:1007D80018600223237019E001221A7000F094FEB9
:1007E80098F8003038608BB1FFF744FD164B284A63
:1007F8001B78174902A88DF80060FFF77BFC03A857
:10080800FFF743FD00F080FE124B186000F07CFEFD
:10081800204B3A681B6813449842C0F08B8001F063
:100828007BFE87E0E4040020F00400204C03002055
:10083800B4040020BC040020F4040020B3680A08B3
:100848006E040020EC04002087040020C7680A0812
:10085800E1670A080C050020EB680A08D8040020A4
:10086800E3680A0814050020500300201005002042
:10087800000300200E690A0813690A08DC04002036
:10088800DA04002018030020DB0400202F690A087E
:100898004C690A082C0300200021022002F025FAE6
:1008A8000021072002F021FA244B0121DFF8C4803F
:1008B8000026062019702E7002F017FA314606201D
:1008C80002F013FA1E4D98F800201E4B1E4F1A70A6
:1008D8002A781E4B1A703A781D4B1A7002F01EFACD
:1008E8001C4B29781868FFF703FC02F017FA1A4B1B
:1008F80098F800101868FFF7FBFB02F00FFA174B87
:1009080039781868FFF7F4FB297898F800303A78B6
:1009180013480091134901F055F807232370124B2F
:100928001B783BB1FFF7A6FC104B114A1B788DF8DA
:100938000060FAE504B0BDE8F08100BF00030020C4
:10094800DB040020B204002009050020B8040020C0
:10095800AB040020540300201403002010030020DF
:10096800C004002060690A08F00400208704002001
:10097800F4680A088804002030B50C4685B0244D78
:1009880049B92B783BB1FFF775FC224B224A1B78FB
:100998008DF800402EE0204603F0B4FBC83801284B
:1009A8002B781ED893B1FFF765FC1A4B00221B78F1
:1009B8001A498DF8002002A8194AFFF79BFB03A8E3
:1009C800FFF763FC00F0A0FD164B1860164B0121E1
:1009D8000620197002F089F90021062002F085F935
:1009E80013E093B1FFF746FC0A4B00221B788DF801
:1009F80000202246094902A8FFF77CFB03A8FFF75D
:100A080044FC00F081FD074B186005B030BD00BF05
:100A1800F0040020870400206C690A0874690A0839
:100A28007F690A080C0500200003002030B524491E
:100A380085B0054601F041FD044600B3214B012273
:100A4800214922481A6003F0B1FC214B1B7893B16D
:100A5800FFF710FC1F4B00221B781F498DF8002060
:100A680002A81E4AFFF746FB03A8FFF70EFC00F09A
:100A78004BFD1B4B18601B4B06221A701CE01A49D1
:100A8800284601F01AFDC0B1114B1B788BB1FFF756
:100A9800F1FB104B154A1B780F4902A88DF800404E
:100AA800FFF728FB03A8FFF7F0FB00F02DFD0C4B28
:100AB80018600F4B00221A60012005B030BD00BF3E
:100AC800F26B0A08EC0400209A690A086E040020F8
:100AD800F004002087040020E1670A088F690A08EB
:100AE8000C050020B30400206A690A0887690A080F
:100AF800140500207FB52B4901F0DFFC2A4C06467F
:100B08002A4A2B4B2B4D10B31B780121117093B13E
:100B1800FFF7B0FB284B00221B7828498DF80020EE
:100B280002A8274AFFF7E6FA03A8FFF7AEFB00F092
:100B3800EBFC244B18602449244803F037FC02F0EE
:100B4800EDF82068FFF7D2FA40F002001FE01B78AA
:100B580010708BB1FFF78EFB174B1D4A1B78174996
:100B680002A88DF80060FFF7C5FA03A8FFF78DFB10
:100B780000F0CAFC134B18601649144803F016FC21
:100B880002F0CCF82068FFF7B1FA20F002002870D4
:100B980002F0C4F820682978FFF7AAFA012004B007
:100BA80070BD00BFF26B0A08E0040020D9040020E1
:100BB800F00400201E05002087040020E1670A08D1
:100BC800A9690A080C050020BA690A08650400200A
:100BD800BF690A08D1690A08F0B5CDB00A2205A98B
:100BE800006804F0F9FAC5B205F10C03DBB2182B62
:100BF80047D844B2204603F009F801F0E7FC02F0B8
:100C08008DF8224B29461868FFF772FA01F03DFD6E
:100C1800234607461E4A4FF480710CA800F0EAFEEE
:100C28001C4B1B78002B2ED01B4E0025FFF722FBF8
:100C380033780CAA194908A88DF80050FFF75AFA1A
:100C480009A8FFF722FB00F05FFC154C2060FFF7B6
:100C580011FB394608A801F0D5FC089B0F490393FE
:100C6800039A337806A88DF80050FFF743FA07A8CF
:100C7800FFF70BFB08A801F0ACFB00F045FC206077
:100C880001E0002000E001204DB0F0BD4803002045
:100C9800D7690A08F00400208704002052680A086F
:100CA8000C0500207FB52649054601F006FC0446E0
:100CB800D0B1244B244D01241C7002F02FF8286871
:100CC800FFF714FA214E2043307002F027F83178EC
:100CD8002868FFF70DFAFFF7CDFA1D4B00221B78A5
:100CE8008DF800201B4A1DE01B49284601F0E5FB52
:100CF80020B3144B144D1C7002F010F82868FFF74D
:100D0800F5F9124E20F00100307002F007F8317842
:100D18002868FFF7EDF9FFF7ADFA0D4B0F4A1B787E
:100D28008DF800400E4902A8FFF7E4F903A8FFF781
:100D3800ACFA00F0E9FB0B4B1860012004B070BD61
:100D4800F26B0A08F0040020E00400201E050020D1
:100D580087040020EB690A086A690A08FC690A081E
:100D68000C6A0A080C05002010B5C6B00A2203A9AF
:100D7800006804F031FA17282BD8184C207001F0BD
:100D8800CDFF174B21781868FFF7B2F92378154A79
:100D98004FF4807106A800F02DFE227812491348FE
:100DA80000F010FE124B1B78ABB1FFF763FA114B42
:100DB80000221B7810498DF8002004A806AAFFF726
:100DC80099F905A8FFF761FA00F09EFB0B4B186034
:100DD80001E0002000E0012046B010BD64040020BE
:100DE8000C030020116A0A0866690A081805002021
:100DF800F00400208704002052680A080C0500202F
:100E080010B5C6B00A2203A9006804F0E5F917284E
:100E18002BD8184C207001F081FF174B21781868E7
:100E2800FFF766F92378154A4FF4807106A800F099
:100E3800E1FD22781249134800F0C4FD124B1B78DB
:100E4800ABB1FFF717FA114B00221B7810498DF848
:100E5800002004A806AAFFF74DF905A8FFF715FA20
:100E680000F052FB0B4B186001E0002000E001206D
:100E780046B010BDE8040020200300202C6A0A08B0
:100E880066690A08AC040020F004002087040020EA
:100E980052680A080C05002070B5C6B003A900689E
:100EA80004F0FAF80021064603F0A2F800283BD126
:100EB8004FF08041304603F0B9F80546002833D199
:100EC8001C4C266001F02AFF1B4B0422186821469F
:100ED80000F04AFB206802F043FA184ACDE9000105
:100EE8004FF4807106A800F085FD206802F038FAFA
:100EF8000B4602461249134800F064FD124B1B785A
:100F0800A3B1FFF7B7F9114B06AA1B78104904A83B
:100F18008DF80050FFF7EEF805A8FFF7B6F900F0D6
:100F2800F3FA0C4B186001E0002000E0012046B005
:100F380070BD00BFBC04002004030020466A0A08F4
:100F4800626A0A0891040020F00400208704002047
:100F5800696A0A080C0500200023042200F082BCFC
:100F68000246014800F0CCBDDD1A0A08F0B501219F
:100F7800A9B0062001F0A8FE0121062001F0B5FE67
:100F88000021062001F0B1FE0121022001F09CFEA3
:100F98000121072001F098FE0021022001F0A5FEA2
:100FA80000210720002401F0A0FE0321112001F0F8
:100FB8008BFE4FF0FF33012294490094112001F079
:100FC80089F893499348FFF7C7FF93499348FFF778
:100FD800C3FF93499348FFF7BFFF93492346042271
:100FE8000968924800F03EFC91499248FFF7B4FF27
:100FF80091499248FFF7B0FF91499248FFF7ACFF3B
:1010080091499248FFF7A8FF91499248FFF7A4FF3A
:1010180091499248FFF7A0FF91499248FFF7A0FF36
:1010280091498048FFF79CFF90499148FFF798FF46
:1010380090499148FFF794FF90499148FFF790FF36
:1010480090499148FFF78CFF90499148FFF788FF36
:1010580090499148FFF784FF01F074FE01F012F8FF
:1010680001218E4800F095F904A800F01BFC2346E6
:101078007D2208A904A801F032FA234622468849AD
:101088000194009408A800F01DFC01F047FE854B70
:101098001868FFF72BF800F10B03DBB2162B03D807
:1010A80040B202F0B3FD00E07F48804E01F08EFAB6
:1010B80001F034FE3068FFF719F828AC00227C4DA7
:1010C80044F8982D28701146204600F00DFA029B2E
:1010D800142B08D12B7801332B7001F01FFE2978CF
:1010E8003068FFF705F801F019FE724B724D186869
:1010F800FEF7FCFF714B724E187000F0010300F010
:10110800020000282B706F4B15BF012200226E4988
:101118006E4943481A7003F049F901F0FFFD6C4B22
:101128006C4F1868FEF7E2FF307001F0F7FD6A4B6C
:101138001868FEF7DBFF387001F0F0FD674B1868A0
:10114800FEF7D4FF3178664B024618703B78384872
:101158000091644900F036FC01F0E0FD624B634EFB
:101168001868FEF7C3FF624B02461870614936489B
:1011780000F028FC01F0D2FD5F4B1868FEF7B6FFBF
:101188005E4B024618705B49314800F01BFC01F0C9
:10119800C5FD5B4B04221868314600F0DDF9306864
:1011A80002F0DEF80B46024656492B4800F00AFCCE
:1011B800FFF760F8394800F06FF9FF28524B0AD161
:1011C80002221A702B78BBB1504B00221B788DF885
:1011D80000204F4A09E001221A702B7863B14B4B6B
:1011E80000221B788DF800204A4A20464A49FEF71B
:1011F80081FF03A8FFF749F800F086F9474B18600C
:1012080004A801F0E6F829B0F0BD00BFD1000A0833
:10121800F8040020706A0A08970400207D6A0A080A
:1012280065040020B2690A0808030020866A0A08D3
:10123800C00400208E6A0A0824030020986A0A085D
:1012480089040020A16A0A0818050020AA6A0A0869
:10125800AC040020B56A0A0891040020BF6A0A0895
:10126800350A0A08C96A0A08FD0A0A08B5000A0800
:10127800D46A0A08E10B0A08DC6A0A08710D0A0830
:10128800E96A0A08090E0A08F36A0A08A10E0A0898
:10129800FC6A0A08AD0C0A08056B0A08200500203C
:1012A80081090A0848030020000080C018030020B4
:1012B800DA040020E0040020F00400201E050020CD
:1012C800B8040020D9040020BA690A08D1690A08BC
:1012D80054030020B204002014030020100300204F
:1012E800AB04002060690A080C030020BC0400203D
:1012F8006404002066690A0820030020E80400202E
:1013080004030020626A0A08B3040020870400204E
:101318000E690A086C670A08E1670A080C050020CC
:1013280010B50B4B01241C7000F02EF9204600F07C
:101338003DFA2146042000F0C7F82046002100F0BD
:101348005DFABDE810402021024800F009B800BF4E
:1013580087040020200500200368C9B29B6818474D
:101368000160704738B50D46144601F0EBFC29467C
:1013780000F0A0FE01F0E6FC2146FFF7EDFF01F0CA
:10138800E1FCBDE8384000F09CBE06220168FFF78A
:10139800E9BF10B50C46FFF7F8FF2CB1BDE81040C7
:1013A8004FF47A7000F04ABB10BD38B50C461546AC
:1013B80001F0C8FC214600F07DFE01F0C3FC29467F
:1013C800FFF7CAFF01F0BEFC00F07BFE142000F01E
:1013D80035FB01F0B7FC2146022200F062FE01F065
:1013E800B1FC03685B699847040201F0ABFC036831
:1013F8005B699847204338BD00220168FFF7D5BFD5
:1014080038B50C46154601F09DFC214600F052FE09
:1014180001F098FC2946FFF79FFF01F093FC00F0CC
:1014280050FE142000F00AFB01F08CFC2146022239
:1014380000F037FE01F086FC03685B6998470402F8
:1014480001F080FC03685B699847204338BD05229A
:101458000168FFF7D5BF38B50C46154601F072FC98
:10146800214600F027FE01F06DFC2946FFF774FFC6
:1014780001F068FC00F025FE142000F0DFFA01F00E
:1014880061FC0122214600F00CFE01F05BFC0368C0
:101498005B699847C0B238BD02220168FFF7DBBF1D
:1014A80008B509220168FFF7D6FF431E5842584184
:1014B80008BD00F069B8000008B5024B1B681B6B3B
:1014C800019308BDD001060808B5024B1B685B6E86
:1014D800019308BDB801060808B5024B1B689B6E4E
:1014E800019308BDB801060808B5024B1B68DB6EFE
:1014F800019308BDB801060808B5024B1B685B6874
:10150800019308BD9C01060808B5024B1B685B697E
:10151800019308BD9C01060808B5024B1B68DB69EE
:10152800019308BD9C01060808B5024B1B689B6A1D
:10153800019308BD9C01060808B5024B1B68DB6ACD
:10154800019308BD9C01060808B5024B1B681B6B7C
:10155800019308BD9C01060808B5024B1B685B6C2B
:10156800019308BD9C01060808B5024B1B689B6CDB
:10157800019308BD9C01060808B5024B1B689B6DCA
:10158800019308BD9C01060808B5024B1B681B683F
:10159800019308BDB001060808B5024B1B689B689B
:1015A800019308BDB001060808B5024B1B68DB684B
:1015B800019308BDB001060808B5024B1B681B69FA
:1015C800019308BDB001060808B5024B1B689B696A
:1015D800019308BDB001060808B5024B1B68DB691A
:1015E800019308BDB001060808B5024B1B68DB6C07
:1015F800019308BDAC01060808B5024B1B685B6D7A
:10160800019308BDAC01060808B5024B1B689B6D29
:10161800019308BDAC01060808B5024B1B68DB6DD9
:10162800019308BDAC01060808B5024B1B681B6E88
:10163800019308BDAC01060808B5024B1B685B6E38
:10164800019308BDAC01060808B5024B1B689B6EE8
:10165800019308BDAC01060808B5024B1B68DB6E98
:10166800019308BDAC01060808B5024B1B681B6F47
:10167800019308BDAC01060808B5024B1B685B6FF7
:10168800019308BDAC01060808B5034B1B68D3F8E5
:101698008030019308BD0000AC01060808B5024B74
:1016A8001B68DB69019308BDB401060808B5024B45
:1016B8001B681B6A019308BDB401060808B5024BF4
:1016C8001B689B69019308BDC401060808B5024B55
:1016D8001B685B6A019308BDC401060808B5024B84
:1016E8001B689B6A019308BDC401060808B5024B34
:1016F8001B68DB6A019308BDC401060808B5024BE4
:101708001B681B6B019308BDC401060808B5024B92
:101718001B685B6B019308BDC401060808B5024B42
:101728001B689B6B019308BDC401060808B5024BF2
:101738001B681B6C019308BDC401060808B5024B61
:101748001B681B68019308BDD801060808B5024B41
:101758001B681B69019308BDD801060808B5024B30
:101768001B685B69019308BDD801060808B5024BE0
:101778001B689B69019308BDD801060808B5024B90
:101788001B68DB69019308BDD801060808B5024B40
:101798001B681B6A019308BDD801060808B5024BEF
:1017A8001B689B6C019308BDC001060808B5024B75
:1017B8001B681B6D019308BDC001060808B5024BE4
:1017C8001B685B6F019308BDC001060808B5024B92
:1017D8001B681B68019308BDA401060808B5024BE5
:1017E8001B685B68019308BDA401060808B5024B95
:1017F8001B685B69019308BDA401060808B5024B84
:101808001B68DB6A019308BDA401060808B5024BF2
:101818001B68DB6C019308BDA401060808B5024BE0
:101828001B685B6D019308BDA401060808B5024B4F
:101838001B689B6D019308BDA401060808B5034BFE
:101848001B68D3F89030019308BD0000A401060876
:1018580008B5034B1B68D3F89C30019308BD000002
:10186800A401060808B5024B1B681B68019308BD54
:10187800CC01060808B5024B1B685B68019308BDDC
:10188800CC01060808B5024B1B689B68019308BD8C
:10189800CC01060808B5024B1B685B69019308BDBB
:1018A800CC01060808B5024B1B68DB69019308BD2B
:1018B800CC01060808B5024B1B681B6A019308BDDA
:1018C800CC01060808B5024B1B685B6A019308BD8A
:1018D800CC01060808B5024B1B681B6B019308BDB9
:1018E800CC01060808B5024B1B68DB6B019308BDE9
:1018F800CC01060808B5024B1B685B68019308BD5C
:10190800C801060808B5024B1B689B68019308BD0F
:10191800C801060808B5024B1B68DB68019308BDBF
:10192800C801060808B5024B1B681B69019308BD6E
:10193800C801060808B5024B1B685B69019308BD1E
:10194800C801060808B5024B1B689B69019308BDCE
:10195800C801060808B5024B1B68DB69019308BD7E
:10196800C801060808B5024B1B681B6A019308BD2D
:10197800C801060808B5024B1B681B6B019308BD1C
:10198800C801060808B5024B1B685B6B019308BDCC
:10199800C801060808B5024B1B681B68019308BDFF
:1019A800A001060808B5024B1B685B68019308BDD7
:1019B800A001060808B5024B1B689B68019308BD87
:1019C800A001060808B5024B1B68DB68019308BD37
:1019D800A001060808B5024B1B681B69019308BDE6
:1019E800A001060808B5024B1B689B69019308BD56
:1019F800A001060808B5024B1B68DB69019308BD06
:101A0800A001060808B5024B1B68DB6A019308BDF4
:101A1800A001060808B5024B1B681B6B019308BDA3
:101A2800A00106088A4230B507D0039D441AED1A72
:101A38006C43521A94FBF2F4E01830BD0021FFF712
:101A4800D5BE10B5836804460BB901F0DAF9C3684E
:101A58009847A3681BB10322214620469847204691
:101A6800BDE81040FEF717BB70470020704710B55F
:101A78000446FEF710FB204610BD08B508B1FFF775
:101A8800F6FF08BD10B58368044613B1032201466A
:101A98009847204610BD38B5C468D4B12378022BC6
:101AA80002D1E068FFF77EFF65682DB12846FFF791
:101AB800E9FF2846FEF7EFFAA5682DB12846FFF79B
:101AC800E1FF2846FEF7E7FA2046BDE83840FEF772
:101AD800E2BA38BD10B588B00446684600F0C0FCCC
:101AE800694604A800F0DEFC04A8A047044604A840
:101AF80000F06FFC684600F06CFC204608B010BD92
:101B0800F0B507460E46154685B01024224600213A
:101B1800684602F010FC002269461046ADF8004005
:101B2800029703960195FFF7A5FE05B0F0BD13B522
:101B3800044691E8050000234B600B60206062605A
:101B480001A801930093FEF7A0FB204602B010BD48
:101B58000B68036013B15A6801325A607047F7B5D1
:101B68000C4606460F4654F8043B02AD45F8083DBE
:101B7800214601A8FFF7ECFF29463046FFF7D7FFBB
:101B880001A8FEF782FB2046FEF77FFB3846FEF7EA
:101B980082FA304603B0F0BD13B50B46044603C8BD
:101BA8008DE8030093E8030084E803009DE8030040
:101BB80083E8030002B010BD826810B50AB901F0CD
:101BC80020F9C368BDE81040184708B5006800F15F
:101BD8001001FFF7F1FF08BD826810B50AB901F0DE
:101BE80010F9C368BDE81040184708B5006800F14F
:101BF8001001FFF7F1FF08BD38B5002383608B683B
:101C080004460D462BB102229847EB68E360AB68A7
:101C1800A360204638BD00002DE9F0414FF69C73C3
:101C280004684FF0020086B0B1F904208B800023CD
:101C38000F688DF800300B60D4E84F1F994203D12C
:101C4800C4E8450F002DF7D102D08DF800106BE0E5
:101C580014F10C051CBFE7602282BFF35F8F18BF29
:101C68001F4601236370BFF35F8F04F10803002050
:101C780053E8006F43E80002002AF9D1BFF35F8FF1
:101C8800002E51D0FFF7C2FD20B129463046FFF79C
:101C980093FF43E031466846FFF7AEFFE068B4F9CA
:101CA800105008B102F08AFB04901020ADF81450CF
:101CB800FEF7EFF9054630B34FF00008C0F808808A
:101CC8001820FEF7E6F90446C0B1C0F808800146BE
:101CD8006846FFF761FF029BA268A360039B02921C
:101CE800E268E360BDF814300392A3824FF69C7358
:101CF800ADF81430049BCDF8108023610D4B2C6097
:101D0800EB600D4BAB600498FFF74CFE6846FFF79D
:101D1800B9FE002229460948FFF780FD3046FFF743
:101D2800B1FE3046FEF7B7F93846FFF73BFE06B07E
:101D3800BDE8F081D31B0A08311E0A084B1A0A08AD
:101D48002DE9F04F8BB007AD4FF0000B06469946D2
:101D580014200C230F4690469DF850A0C5F804B0F7
:101D6800C5F808B00793FEF794F9044638B180F82F
:101D780000B080F801B0C0F804B0C0F808B0002383
:101D8800102003940493FEF784F928B101234360DB
:101D98008360234BC4600360224B0490082008939F
:101DA800FEF777F9044628B1039B04A940F8043BE1
:101DB800FFF7CEFE00955FFA8AF34A464146384659
:101DC8000994FFF777FDB8B9039B5B7803F0FF022E
:101DD80093B94FF69C7305A903A80592ADF818307E
:101DE800FFF71AFF0598FFF7DDFD05A80999FFF72A
:101DF800B6FE06A8FEF749FA039B04A906A80593B0
:101E0800FFF7A6FE05A93046FFF791FE06A8FEF7E4
:101E18003CFA04A8FEF739FA30460BB0BDE8F08F5B
:101E2800506B0A08991F0A08022AF8B5044606D01A
:101E3800032A17D0012A20D10B6803601DE018205F
:101E48000E68FEF726F9054650B13146FFF7D4FE75
:101E58003069B6F9147008B102F0B0FA2861AF829F
:101E680025600AE0046844B12069FFF79BFD20461D
:101E7800FFF708FE2046FEF70EF90020F8BD38B53A
:101E8800002383608B6804460D462BB102229847D5
:101E9800EB68E360AB68A360204638BD022A70B5E2
:101EA800044606D0032A11D0012A17D10B68036013
:101EB80014E014200E68FEF7ECF8054620B1314610
:101EC800FFF7DDFF337C2B74256007E004682CB135
:101ED8002046FFF7D7FD2046FEF7DDF8002070BD4D
:101EE800F0B50C46BFF35F8F87B0002350E8006F52
:101EF80040E80032002AF9D1BFF35F8F002E3ED0B0
:101F08001846FFF783FC074620B121463046FFF705
:101F180063FE2EE0314601A8FFF7B1FF23781020B9
:101F28008DF81430FEF7B5F80546D0B18760142057
:101F3800FEF7AFF8044678B18760014601A8FFF7BD
:101F48002BFE039BA268A360049B0392E268E360F4
:101F58009DF81430049223740A4B2C60EB600A4BF2
:101F6800AB6001A8FFF78EFD002229460748FFF75E
:101F780055FC3046FFF786FD3046FEF78CF807B073
:101F8800F0BD00BFF31B0A08A51E0A084B1A0A0871
:101F980030B5044685B00D4668461146FFF7DFFDAB
:101FA8007CB124B228460DB102F008FA029002A9C9
:101FB8006846ADF80C40FFF72FFE0298FFF7F2FCD9
:101FC8001DE04FF0010200988DF80840D0E84F3F1F
:101FD800A34203D1C0E8412F0029F7D102D08DF8E0
:101FE80008300CE010F10C014FF0010318BF037327
:101FF800BFF35F8F043000F8033CFFF771FF01A8BF
:10200800FEF743F905B030BD7047F8B506461546EA
:102018000C468F18BC4206D0336814F8011B9B6825
:1020280030469847F6E72846F8BD0022007CFFF7BF
:10203800FBBA0021007CFFF7FFBA0021007CFFF704
:1020480003BB0021007CFFF707BB0021007CFFF7E2
:102058000BBB10B50446FEF71EF8204610BD000065
:1020680010B5044608464FF47A73A360044B002168
:10207800207461602360FFF707FB204610BD00BF96
:102088006C6B0A0800231A461946007CFFF7ACBAA5
:1020980013B50024007C0094FFF7AEFAC0B202B07A
:1020A80010BD0123D2B2C9B2FFF7F2BF0022007CF3
:1020B800FFF7AABAC9B2FFF7F9BF0022007CFFF701
:1020C800ABBA0121FFF7F9BF0021007CFFF7D4BAB2
:1020D80000470000F0B51C4685B005460E46174679
:1020E800FFF77AFA002084424FF0040303908DF83A
:1020F8000C30B4BF03469DF828302846A4BF8DF89D
:102108000E3003AB009332463B460449A8BF8DF816
:102118000D40FFF759FA012005B0F0BDD9200A0893
:10212800704710B50446FDF7B6FF204610BDF8B558
:102138000F4600F10806051D002416F8011D0A22A5
:10214800384600F010F9AE42044407D0002CF4D011
:102158002E21384600F0DAF80444EEE72046F8BDB0
:1021680010B50446044B112240F8043B002102F04C
:10217800E2F8204610BD00BF946B0A080346074AE0
:1021880010B543F8042B01F1100251F8044B9142A9
:1021980043F8044BF9D10A781A7010BD946B0A08F9
:1021A800024A41600260042202757047946B0A0873
:1021B80010B59DF8084044EA032343EA024242EA84
:1021C800016104234160037510BD000037B5044D5B
:1021D80005609DF818500095FFF7EAFF03B030BD81
:1021E800946B0A08014A024B1A607047536C0A083C
:1021F8002405002000231A464068FFF77BBB002215
:1022080002214068FFF786BB002211464068FFF7AD
:1022180079BB002211464068FFF784BB00231A46A9
:1022280019464068FFF786BB00231A4619464068DE
:10223800FFF788BB002281F001014068FFF78ABBE5
:1022480000224068FFF796BB002211464068FFF75E
:1022580099BB002211464068FFF784BB70B516464B
:102268008EB0044608A8FFF77BFF1122002103A8BF
:1022780002F061F8304602F0BCF800250A4B0095E0
:1022880081B25B6803AA3046FFF788FA20B1294675
:102298002046FFF785FF03E003A92046FFF76EFFFE
:1022A80020460EB070BD00BFD8090020024B034A7B
:1022B8001A6000225A60704728050020846C0A08BA
:1022C800F8B506460D468F180024BD420CD0336879
:1022D80015F8011B9B6830469847002801DB044429
:1022E800F3E7002C08BF04462046F8BD70B5054644
:1022F8000C46084649B102F07CF82B680246214694
:102308002846BDE87040DB68184770BD03689B68C5
:102318001847012A98BF0A2230B50B468BB0002116
:102328008DF824100DF12304B3FBF2F505FB1233ED
:10233800DBB2092B94BF30333733DBB2214604F8C4
:1023480001392B46002DEFD1FFF7D0FF0BB030BD80
:1023580010B422B90368C9B29B6810BC1847D2B23E
:1023680010BCFFF7D6BFFFF7F3BF10B50446FFF761
:1023780089FB204610BD0000034800238360034A00
:10238800034900F039BD00BF30050020600400207B
:1023980073230A08704710B50446FDF77CFE2046F3
:1023A80010BD000070B504460E46074B00250360BB
:1023B80040F80C5FFFF780F830462671FFF76EF99A
:1023C800A560204670BD00BFB86C0A080079FFF709
:1023D8006DB910B504460068FFF7E4FA204610BD51
:1023E80010B50446006808B1FFF7DCFA0023236043
:1023F800A360636010BD38B504460D46006801311E
:10240800FFF7D8FA10B184E82100012038BD10B5D3
:102418000368044613B143688B4207D22046FFF78E
:10242800EAFF20B1A3680BB922681370012010BD20
:1024380070B50E46114604461546FFF7E8FF18B971
:102448002046FFF7CDFF09E02A463146A5602068FF
:1024580001F066FF2268A3680021D154204670BDB0
:1024680038B50023044603604360836003730D4658
:1024780039B1084601F0BDFF294602462046FFF75C
:10248800D7FF204638BD884210B50B46044607D012
:10249800096819B19A68FFF7CBFF01E0FFF7A0FFC1
:1024A800204610BD10B504460023036043608360D6
:1024B8000373FFF7E8FF204610BD08B582680B4696
:1024C80012B919B9012008BD11B90368187802E0DA
:1024D800006801F061FFB0FA80F0400908BD70B5EE
:1024E8000E469AB191B185689D4202D800230B70BF
:1024F80070BD541EED1AAC4228BF2C460168224616
:102508001944304601F092FF0023335570BD01464F
:1025180000228C20FEF7E0BF0020FFF7F8BF000084
:102528004FF6FF72034B0020187058809A80FFF70F
:1025380055B900BF40050020F0B5144B144F1E6874
:10254800144B064418683B6806449E428BB01BD067
:102558000AA840F8286D01F0E7FD0446436901AD7B
:1025680003F26C7343610FCC0FC50FCC0FC5D4F8C1
:1025780000E0094CC5F800E001AD0FCD0FC40FCD48
:102588000FC43E60C4F800E00BB0F0BD7805002031
:1025980074050020700500204805002008B50020BB
:1025A800FFF798F928B1FFF775F980F00100C0B27C
:1025B80008BD012008BD000008B5FFF7BDFF024BAC
:1025C8001869013008BD00BF4805002010B5094949
:1025D800044601F00DFD60B90749204601F026FDCB
:1025E80038B90649204601F065FB01F029FD044B86
:1025F800186010BD000040C1000060410000614546
:102608007805002037B50E4B04461B6802A819440C
:102618000C4B1B68194440F8041D01F085FD01F0BE
:1026280035FD054601F0E5FE0023284400F8013C8D
:1026380029462046FFF714FF204603B030BD00BFEF
:10264800780500207005002010B50020FEF794FFE3
:10265800044668B9FFF7BAF801280BD12046FFF7FE
:10266800E5F838B9FFF79AFF30B9FFF70BF9F9E742
:10267800012010BD002010BDFFF790FF0020FEF7DD
:102688007BFF003018BF012010BD08B5FFF7DCFF45
:10269800BDE80840FEF740BF08B5FFF7F6FFFFF7B3
:1026A8004BFF014B986808BD4805002008B5FFF7A7
:1026B800ECFFFFF741FF014BD86808BD4805002033
:1026C80008B5FFF7E2FFBDE80840FFF775BF000057
:1026D800024B1A68024B1A60704700BF7003002053
:1026E8006C050020704741747047007CFFF71EB8E6
:1026F800007CFEF7F3BF007CFFF700B8007CFEF714
:10270800F5BF007CFFF702B810B50446FDF7C3FC1F
:10271800204610BD70B5457C04460E4625B9007CA0
:10272800FFF704F8002805DD3146207CBDE870403D
:10273800FEF7CCBF284670BD10B5044608461146C2
:10274800002262604FF47A72A260054A2074226007
:10275800012262741A46FEF7B1FF204610BD00BF81
:10276800F06C0A08007CFEF7D9BF000038B50C4DA4
:10277800296811F0010411D12846FDF78EFC68B1D3
:10278800084A2146084B0948FFF7D6FF2846FDF7B7
:1027980089FC074A0749054800F02EFB034838BD65
:1027A8001406002018060020900500207C05002053
:1027B80060040020ED260A08417470477047002124
:1027C800007CFEF7D3BF0121007CFEF7CFBF007C61
:1027D800FEF7C4BF007CFEF7B9BF38B50446007CDD
:1027E8000D46FEF7BBFF002801DC607C20B12946BE
:1027F800207CFEF7C3FF012038BD007CFEF7C6BF72
:1028080010B50446FDF747FC204610BD10B5044638
:10281800002363604FF47A73A360054B0846236076
:102828000123217463741146FEF788FF204610BD0A
:10283800206D0A0810B504461422002101F07BFD22
:10284800054B20466360054BE36040F2011323818A
:102858008123238210BD00BF21070020A00600208D
:1028680030B50E4D87B001A8FFF7E4FF296811F0D5
:10287800010410D12846FDF710FC60B101AA2146D9
:102888000748FFF7C3FF2846FDF70CFC054A064931
:10289800034800F0B1FA024807B030BD9C0600209A
:1028A8002408002060040020C5270A0810B5044643
:1028B8001422002101F03FFD054B20466360054BC3
:1028C800E36040F2011323818123238210BD00BFFE
:1028D800D40800203C08002010B50E4C86B001A892
:1028E800FFF7E4FF2368DB0710D42046FDF7D5FB8C
:1028F80060B101AA01210848FFF788FF2046FDF7CB
:10290800D1FB064A0649044800F076FA024806B0A8
:1029180010BD00BF38080020C00800206004002057
:10292800C5270A08704701207047000008B5838949
:102938001BB10069B0F1004F01D1002008BD01F0C2
:1029480065F9024901F06AFA08BD00BF0000C842F3
:1029580008B583891BB18069B0F1004F01D100200F
:1029680008BD01F053F9024901F058FA08BD00BF4B
:102978000000C842002211464068FEF7D3BF10B5D8
:102988000446FDF788FB204610BDF0B5164689B011
:1029980011220F460446002103A801F0CCFC304662
:1029A80001F027FD0025009581B27B6803AA304617
:1029B800FEF7F4FE20B129462046FFF7F1FB03E0BD
:1029C80003A92046FFF7DAFB204609B0F0BD002234
:1029D80011464068FEF7C6BF002211464068FEF760
:1029E800D1BF00224068FEF7C5BF002281F0010177
:1029F8004068FEF7AFBF00231A4619464068FEF745
:102A0800A1BF00231A4619464068FEF793BF00226B
:102A180011464068FEF776BF002202214068FEF7A3
:102A280079BF00231A464068FEF764BF08B583895A
:102A38005BB1006A002808DB01F0E8F8044901F0FE
:102A4800EDF9044901F036F908BD034808BD00BF97
:102A580000FF7F470000C842000080BF08B5838997
:102A68005BB14069002808DB01F0D0F8044901F0A7
:102A7800D5F9044901F01EF908BD034808BD00BF97
:102A880000FF7F470000C842000080BF90F90400A3
:102A9800704770B50D46064600F10C040FCD0FC403
:102AA80095E8030084E8030033690120B3F1004F7F
:102AB8001ABF642293FBF2F302237360B369B3F184
:102AC800004F1ABF642293FBF2F30023B36070BD7A
:102AD8002DE9F0418846164B00250227182686B0B6
:102AE8000360476085603246294604460C3001F091
:102AF80022FC2A462946D8F80400FEF713FF90B1B5
:102B080032462946684601F016FC2A466946284698
:102B1800ADF80060FEF752FE20B969462046FFF77F
:102B2800B8FF00E06760204606B0BDE8F08100BF4E
:102B3800846D0A08024B04225A60024A1A607047E0
:102B4800D8090020506D0A0808B5144B33B1FFF7B7
:102B580087FE03681B699847002816DC104B33B1C1
:102B6800FFF704FE03681B699847002810DC0D4B2B
:102B78000BB1AFF300800C4B7BB1FFF7ADFE0368E0
:102B88001B699847002806DC08BDAFF30080E5E71D
:102B9800AFF30080EBE7AFF3008008BD0000000052
:102BA80000000000000000000000000008B5FFF76A
:102BB800CBFFFEF7A9FC014B186008BDE80900200F
:102BC8000248034A0349121A01F0AABB0040024016
:102BD80004400240A0710A0807B5002300931A4672
:102BE8006FF07701FEF734FE03B05DF804FB0000D8
:102BF80007B543880A2B08D0502B09D1094B1B680D
:102C08003BB103B05DF804EB1847FFF7E5FF06E0BA
:102C1800002300931A466FF07701FEF719FE03B000
:102C28005DF804FBE009002038B5104C104D23680E
:102C3800AB42104B0CBF012200221A7002D0FFF7E2
:102C4800BFFF2560FEF758FC044601F07DFB0A4BE8
:102C580013B12046AFF3008000210748FEF742FE7B
:102C6800BDE8384000210548FEF7E8BD00400240B5
:102C78001E1C279AE409002000000000F92B0A080E
:102C880010B504460F48FFF7A1FB28B1A4F10D03C6
:102C9800022B01D8002010BD00F054F8FFF714FAF9
:102CA80008B1012CF6D9FFF761FDFFF75BFD18B1FC
:102CB800A4F11203012BEDD9172C8CBF00200120A1
:102CC80010BD00BF240A0020172838B504460D4659
:102CD8000AD8FF2908D0FFF7D3FF28B12946204694
:102CE800BDE83840FEF758BC38BD38B504460D4637
:102CF800FEF75AFCFF2810D0062804D84D2323FAE3
:102D080000F0C30709D42046FFF7BAFF28B12946C7
:102D18002046BDE83840FEF74FBC38BD10B5074C1B
:102D28002368DB0708D42046FDF7B7F920B1FEF782
:102D3800FBFB2046FDF7B6F9014810BDEC09002061
:102D4800F009002038B50B4D296811F001040FD1A6
:102D58002846FDF7A2F958B121460748FFF780F940
:102D68002846FDF79FF9054A0549034800F044F84D
:102D7800014838BDF4090020F8090020600400204B
:102D880011200A0813B5084C00231A461946009367
:102D98002046FFF71BFA2046044A054902B0BDE861
:102DA800104000F029B800BF0C0A00206004002081
:102DB80029210A0870B50C4C0C4E0D4D00212046F7
:102DC800FFF7F0FA20460B4C3246294600F014F87B
:102DD80001212046FFF7E6FA324629462046BDE89B
:102DE800704000F009B800BF240A002060040020E9
:102DF8009D230A08340A00200B460146184601F0B4
:102E080085B908B5FEF7FEFD244B1A68D0075CBFEC
:102E180001221A60224B1A68D1075CBF01221A608E
:102E2800204B1A68D2075CBF01221A601E4B1A6831
:102E3800D0075CBF01221A601C4B1A68D1075CBF1F
:102E480001221A601A4B1A68D2075CBF01221A6065
:102E5800184B1A68D0075CBF01221A60164B1A6813
:102E6800D1075CBF01221A60144B1A68D2075CBFF5
:102E780001221A60124B1A68D0075CBF01221A603F
:102E8800104B1A68D1075CBF01221A600E4B1A68F2
:102E9800D2075CBF01221A60704700BF700A002089
:102EA8006C0A0020680A0020640A0020600A0020DA
:102EB8005C0A0020580A0020540A0020500A00200A
:102EC8004C0A0020480A0020440A0020184B1A68BF
:102ED800D1075CBF01221A60164B1A68D2075CBF83
:102EE80001221A60144B1A68D0075CBF01221A60CD
:102EF800124B1A68D1075CBF01221A60104B1A687E
:102F0800D2075CBF01221A600E4B1A68D0075CBF5B
:102F180001221A600C4B1A68D1075CBF01221A60A3
:102F28000A4B1A68D2075CBF01221A60704700BFBB
:102F3800900A00208C0A0020880A0020840A0020B9
:102F4800800A00207C0A0020780A0020740A0020E9
:102F5800184B1A68D1075CBF01221A60164B1A6811
:102F6800D2075CBF01221A60144B1A68D0075CBFF5
:102F780001221A60124B1A68D1075CBF01221A603D
:102F8800104B1A68D2075CBF01221A600E4B1A68F0
:102F9800D0075CBF01221A600C4B1A68D1075CBFCE
:102FA80001221A600A4B1A68D2075CBF01221A6014
:102FB800704700BFB00A0020AC0A0020A80A002011
:102FC800A40A0020A00A00209C0A0020980A0020D9
:102FD800940A0020244B1A68D0075CBF01221A60AB
:102FE800224B1A68D1075CBF01221A60204B1A686D
:102FF800D2075CBF01221A601E4B1A68D0075CBF5B
:1030080001221A601C4B1A68D1075CBF01221A60A2
:103018001A4B1A68D2075CBF01221A60184B1A684B
:10302800D0075CBF01221A60164B1A68D1075CBF33
:1030380001221A60144B1A68D2075CBF01221A6079
:10304800124B1A68D0075CBF01221A60104B1A682D
:10305800D1075CBF01221A600E4B1A68D2075CBF09
:1030680001221A60704700BFE00A0020DC0A002035
:10307800D80A0020D40A0020D00A0020CC0A002058
:10308800C80A0020C40A0020C00A0020BC0A002088
:10309800B80A0020B40A002081F0004102E000BF15
:1030A80083F0004330B54FEA41044FEA430594EA00
:1030B800050F08BF90EA020F1FBF54EA000C55EA3B
:1030C800020C7FEA645C7FEA655C00F0E2804FEA0C
:1030D8005454D4EB5555B8BF6D420CDD2C4480EAEE
:1030E800020281EA030382EA000083EA010180EA1E
:1030F800020281EA0303362D88BF30BD11F0004F6C
:103108004FEA01314FF4801C4CEA113102D04042A1
:1031180061EB410113F0004F4FEA03334CEA1333DC
:1031280002D0524263EB430394EA050F00F0A780F4
:10313800A4F10104D5F1200E0DDB02FA0EFC22FAEF
:1031480005F2801841F1000103FA0EF2801843FAE3
:1031580005F359410EE0A5F120050EF1200E012AD4
:1031680003FA0EFC28BF4CF0020C43FA05F3C01812
:1031780051EBE37101F0004507D54FF0000EDCF18B
:10318800000C7EEB00006EEB0101B1F5801F1BD334
:10319800B1F5001F0CD349085FEA30004FEA3C0C38
:1031A80004F101044FEA445212F5800F80F09A802E
:1031B800BCF1004F08BF5FEA500C50F1000041EB32
:1031C800045141EA050130BD5FEA4C0C404141EB36
:1031D800010111F4801FA4F10104E9D191F0000F5D
:1031E80004BF01460020B1FA81F308BF2033A3F1E0
:1031F8000B03B3F120020CDA0C3208DD02F1140CD7
:10320800C2F10C0201FA0CF021FA02F10CE002F111
:103218001402D8BFC2F1200C01FA02F120FA0CFC0A
:10322800DCBF41EA0C019040E41AA2BF01EB045153
:10323800294330BD6FEA04041F3C1CDA0C340EDC51
:1032480004F11404C4F1200220FA04F001FA02F394
:1032580040EA030021FA04F345EA030130BDC4F152
:103268000C04C4F1200220FA02F001FA04F340EA47
:103278000300294630BD21FA04F0294630BD94F0F8
:10328800000F83F4801306BF81F480110134013DDF
:103298004EE77FEA645C18BF7FEA655C29D094EA50
:1032A800050F08BF90EA020F05D054EA000C04BFCE
:1032B8001946104630BD91EA030F1EBF00210020B9
:1032C80030BD5FEA545C05D14000494128BF41F058
:1032D800004130BD14F580043CBF01F5801130BDBC
:1032E80001F0004545F0FE4141F470014FF0000047
:1032F80030BD7FEA645C1ABF194610467FEA655CF8
:103308001CBF0B46024650EA013406BF52EA033599
:1033180091EA030F41F4002130BD00BF90F0000F87
:1033280004BF0021704730B54FF4806404F13204C3
:103338004FF000054FF0000150E700BF90F0000F7C
:1033480004BF0021704730B54FF4806404F13204A3
:1033580010F0004548BF40424FF000013EE700BF73
:1033680042004FEAE2014FEA31014FEA02701FBF03
:1033780012F07F4393F07F4F81F06051704792F0D5
:10338800000F14BF93F07F4F704730B54FF460744F
:1033980001F0004521F0004120E700BF50EA01029A
:1033A80008BF704730B54FF000050AE050EA010247
:1033B80008BF704730B511F0004502D5404261EBB7
:1033C80041014FF4806404F132045FEA915C3FF4F8
:1033D800DCAE4FF003025FEADC0C18BF03325FEA91
:1033E800DC0C18BF033202EBDC02C2F1200300FA46
:1033F80003FC20FA02F001FA03FE40EA0E0021FA6B
:1034080002F11444C1E600BF70B54FF0FF0C4CF454
:10341800E06C1CEA11541DBF1CEA135594EA0C0F0A
:1034280095EA0C0F00F0DEF82C4481EA030621EA45
:103438004C5123EA4C5350EA013518BF52EA033580
:1034480041F4801143F4801338D0A0FB02CE4FF032
:103458000005E1FB02E506F00042E0FB03E54FF062
:103468000006E1FB03569CF0000F18BF4EF0010E5A
:10347800A4F1FF04B6F5007F64F5407404D25FEA56
:103488004E0E6D4146EB060642EAC62141EA555109
:103498004FEAC52040EA5E504FEACE2EB4F1FD0C4B
:1034A80088BFBCF5E06F1ED8BEF1004F08BF5FEAC9
:1034B800500E50F1000041EB045170BD06F000467B
:1034C80046EA010140EA020081EA0301B4EB5C0428
:1034D800C2BFD4EB0C0541EA045170BD41F4801120
:1034E8004FF0000E013C00F3AB8014F1360FDEBF45
:1034F800002001F0004170BDC4F10004203C35DA21
:103508000C341BDC04F11404C4F1200500FA05F3A3
:1035180020FA04F001FA05F240EA020001F0004244
:1035280021F0004110EBD37021FA04F642EB0601BA
:103538005EEA430E08BF20EAD37070BDC4F10C04E4
:10354800C4F1200500FA04F320FA05F001FA04F2A8
:1035580040EA020001F0004110EBD37041F1000194
:103568005EEA430E08BF20EAD37070BDC4F120059F
:1035780000FA05F24EEA020E20FA04F301FA05F207
:1035880043EA020321FA04F001F0004121FA04F2AF
:1035980020EA020000EBD3705EEA430E08BF20EA7F
:1035A800D37070BD94F0000F0FD101F000464000B9
:1035B80041EB010111F4801F08BF013CF7D041EA3B
:1035C800060195F0000F18BF704703F0004652003F
:1035D80043EB030313F4801F08BF013DF7D043EA10
:1035E8000603704794EA0C0F0CEA135518BF95EAC6
:1035F8000C0F0CD050EA410618BF52EA4306D1D14D
:1036080081EA030101F000414FF0000070BD50EA6B
:10361800410606BF1046194652EA430619D094EAF5
:103628000C0F02D150EA013613D195EA0C0F05D1DF
:1036380052EA03361CBF104619460AD181EA030133
:1036480001F0004141F0FE4141F470014FF00000EB
:1036580070BD41F0FE4141F4780170BD70B54FF086
:10366800FF0C4CF4E06C1CEA11541DBF1CEA135506
:1036780094EA0C0F95EA0C0F00F0A7F8A4EB0504E8
:1036880081EA030E52EA03354FEA013100F08880DF
:103698004FEA03334FF0805545EA131343EA1263A8
:1036A8004FEA022245EA111545EA10654FEA00265D
:1036B8000EF000419D4208BF964244F1FD0404F516
:1036C800407402D25B084FEA3202B61A65EB030572
:1036D8005B084FEA32024FF480104FF4002CB6EB2F
:1036E800020E75EB030E22BFB61A754640EA0C00AF
:1036F8005B084FEA3202B6EB020E75EB030E22BFEF
:10370800B61A754640EA5C005B084FEA3202B6EB2F
:10371800020E75EB030E22BFB61A754640EA9C00EE
:103728005B084FEA3202B6EB020E75EB030E22BFBE
:10373800B61A754640EADC0055EA060E18D04FEA7C
:10374800051545EA16754FEA06164FEAC30343EA1C
:1037580052734FEAC2025FEA1C1CC0D111F4801FE9
:103768000BD141EA00014FF000004FF0004CB6E7E2
:1037780011F4801F04BF01430020B4F1FD0C88BF81
:10378800BCF5E06F3FF6AFAEB5EB030C04BFB6EB8C
:10379800020C5FEA500C50F1000041EB045170BD7F
:1037A8000EF0004E4EEA113114EB5C04C2BFD4EBAC
:1037B8000C0541EA045170BD41F480114FF0000E30
:1037C800013C90E645EA060E8DE60CEA135594EAAC
:1037D8000C0F08BF95EA0C0F3FF43BAF94EA0C0FAF
:1037E8000AD150EA01347FF434AF95EA0C0F7FF424
:1037F80025AF104619462CE795EA0C0F06D152EA78
:1038080003353FF4FDAE1046194622E750EA41065B
:1038180018BF52EA43067FF4C5AE50EA41047FF46C
:103828000DAF52EA43057FF4EBAE12E74FF0FF3CD1
:1038380006E000BF4FF0010C02E000BF4FF0010CA2
:103848004DF804CD4FEA410C7FEA6C5C4FEA430C1B
:1038580018BF7FEA6C5C1BD001B050EA410C0CBF6A
:1038680052EA430C91EA030F02BF90EA020F0020CC
:10387800704710F1000F91EA030F58BF994208BF33
:1038880090422CBFD8176FEAE37040F001007047F0
:103898004FEA410C7FEA6C5C02D150EA013C07D147
:1038A8004FEA430C7FEA6C5CD6D152EA033CD3D092
:1038B8005DF8040B704700BF8446104662468C468C
:1038C8001946634600E000BF01B5FFF7B7FF0028BF
:1038D80048BF10F1000F01BD4DF808EDFFF7F4FFE8
:1038E8000CBF012000205DF808FB00BF4DF808ED73
:1038F800FFF7EAFF34BF012000205DF808FB00BF96
:103908004DF808EDFFF7E0FF94BF012000205DF8B7
:1039180008FB00BF4DF808EDFFF7CEFF94BF01206C
:1039280000205DF808FB00BF4DF808EDFFF7C4FF65
:1039380034BF012000205DF808FB00BF4FEA410CAE
:103948007FEA6C5C02D150EA013C0AD14FEA430C91
:103958007FEA6C5C02D152EA033C02D14FF00000CE
:1039680070474FF0010070474FEA410212F500120C
:1039780015D211D56FF47873B3EB625212D94FEAAE
:10398800C12343F0004343EA505311F0004F23FA98
:1039980002F018BF404270474FF00000704750EAED
:1039A800013005D111F0004008BF6FF000407047AA
:1039B8004FF00000704700BF4A0011D212F5001204
:1039C80011D20DD56FF47873B3EB62520ED44FEA6F
:1039D800C12343F0004343EA505323FA02F07047EF
:1039E8004FF00000704750EA013002D14FF0FF302D
:1039F80070474FF0000070474FEA4102B2F1E043D0
:103A080024BFB3F5001CDCF1FE5C0DD901F0004CBD
:103A18004FEAC0024CEA5070B2F1004F40EB83000D
:103A280008BF20F00100704711F0804F21D113F139
:103A38003872BCBF01F00040704741F480114FEA72
:103A48005252C2F11802C2F1200C10FA0CF320FAFB
:103A580002F018BF40F001004FEAC1234FEAD32318
:103A680003FA0CFC40EA0C0023FA02F34FEA430382
:103A7800CCE77FEA625307D150EA01331EBF4FF00B
:103A8800FE4040F44000704701F0004040F0FE4026
:103A980040F40000704700BF80F0004002E000BF23
:103AA80081F0004142001FBF5FEA410392EA030F21
:103AB8007FEA226C7FEA236C6AD04FEA1262D2EB6B
:103AC8001363C1BFD218414048404140B8BF5B4270
:103AD800192B88BF704710F0004F40F4000020F009
:103AE8007F4018BF404211F0004F41F4000121F01F
:103AF8007F4118BF494292EA030F3FD0A2F1010269
:103B080041FA03FC10EB0C00C3F1200301FA03F1A6
:103B180000F0004302D5494260EB4000B0F5000FC9
:103B280013D3B0F1807F06D340084FEA310102F188
:103B38000102FE2A51D2B1F1004F40EBC25008BF3A
:103B480020F0010040EA03007047490040EB000004
:103B580010F4000FA2F10102EDD1B0FA80FCACF133
:103B6800080CB2EB0C0200FA0CF0AABF00EBC25032
:103B780052421843BCBFD0401843704792F0000F20
:103B880081F4000106BF80F400000132013BB5E773
:103B98004FEA41037FEA226C18BF7FEA236C21D0E9
:103BA80092EA030F04D092F0000F08BF084670474E
:103BB80090EA010F1CBF0020704712F07F4F04D11C
:103BC800400028BF40F00040704712F100723CBF2F
:103BD80000F50000704700F0004343F0FE4040F459
:103BE800000070477FEA226216BF08467FEA236317
:103BF8000146420206BF5FEA412390EA010F40F402
:103C0800800070474FF0000304E000BF10F000434D
:103C180048BF40425FEA000C08BF704743F0964334
:103C280001464FF000001CE050EA010208BF70474F
:103C38004FF000030AE000BF50EA010208BF7047D6
:103C480011F0004302D5404261EB41015FEA010CEB
:103C580002BF84460146002043F0B64308BFA3F1E3
:103C68008053A3F50003BCFA8CF2083AA3EBC253C5
:103C780010DB01FA02FC634400FA02FCC2F12002E4
:103C8800BCF1004F20FA02F243EB020008BF20F01B
:103C98000100704702F1200201FA02FCC2F1200281
:103CA80050EA4C0021FA02F243EB020008BF20EA76
:103CB800DC7070474FF0FF0C1CEAD0521EBF1CEAA4
:103CC800D15392EA0C0F93EA0C0F6FD01A4480EA92
:103CD800010C400218BF5FEA41211ED04FF000637B
:103CE80043EA501043EA5111A0FB01310CF00040A7
:103CF800B1F5000F3EBF490041EAD3715B0040EACD
:103D0800010062F17F02FD2A1DD8B3F1004F40EB9C
:103D1800C25008BF20F00100704790F0000F0CF06F
:103D2800004C08BF49024CEA502040EA51207F3A33
:103D3800C2BFD2F1FF0340EAC250704740F400000E
:103D48004FF00003013A5DDC12F1190FDCBF00F0FF
:103D580000407047C2F10002410021FA02F1C2F1AD
:103D6800200200FA02FC5FEA310040F1000053EA49
:103D78004C0308BF20EADC70704792F0000F00F097
:103D8800004C02BF400010F4000F013AF9D040EA9D
:103D98000C0093F0000F01F0004C02BF490011F431
:103DA800000F013BF9D041EA0C018FE70CEAD1532F
:103DB80092EA0C0F18BF93EA0C0F0AD030F0004CAF
:103DC80018BF31F0004CD8D180EA010000F0004063
:103DD800704790F0000F17BF90F0004F084691F021
:103DE800000F91F0004F14D092EA0C0F01D142025B
:103DF8000FD193EA0C0F03D14B0218BF084608D124
:103E080080EA010000F0004040F0FE4040F400006D
:103E1800704740F0FE4040F4400070474FF0FF0C00
:103E28001CEAD0521EBF1CEAD15392EA0C0F93EA47
:103E38000C0F69D0A2EB030280EA010C49024FEA99
:103E4800402037D04FF0805343EA111143EA101352
:103E58000CF000408B4238BF5B0042F17D024FF40A
:103E6800000C8B4224BF5B1A40EA0C00B3EB510FE5
:103E780024BFA3EB510340EA5C00B3EB910F24BFCE
:103E8800A3EB910340EA9C00B3EBD10F24BFA3EB53
:103E9800D10340EADC001B0118BF5FEA1C1CE0D11B
:103EA800FD2A3FF650AF8B4240EBC25008BF20F0CE
:103EB800010070470CF0004C4CEA50207F32C2BF22
:103EC800D2F1FF0340EAC250704740F400004FF0BF
:103ED8000003013A37E792F0000F00F0004C02BFF0
:103EE800400010F4000F013AF9D040EA0C0093F0BA
:103EF800000F01F0004C02BF490011F4000F013B14
:103F0800F9D041EA0C0195E70CEAD15392EA0C0F7B
:103F180008D142027FF47DAF93EA0C0F7FF470AFB3
:103F2800084676E793EA0C0F04D14B023FF44CAFF6
:103F380008466EE730F0004C18BF31F0004CCAD18B
:103F480030F000427FF45CAF31F000437FF43CAFC7
:103F58005FE700BF4FF0FF3C06E000BF4FF0010CE9
:103F680002E000BF4FF0010C4DF804CD4FEA4002CB
:103F78004FEA41037FEA226C18BF7FEA236C11D015
:103F880001B052EA530C18BF90EA010F58BFB2EBC8
:103F9800030088BFC81738BF6FEAE17018BF40F048
:103FA800010070477FEA226C02D15FEA402C05D1FC
:103FB8007FEA236CE4D15FEA412CE1D05DF8040B81
:103FC800704700BF844608466146FFE70FB5FFF714
:103FD800C9FF002848BF10F1000F0FBD4DF808EDCC
:103FE800FFF7F4FF0CBF012000205DF808FB00BFBD
:103FF8004DF808EDFFF7EAFF34BF012000205DF817
:1040080008FB00BF4DF808EDFFF7E0FF94BF012063
:1040180000205DF808FB00BF4DF808EDFFF7D2FF60
:1040280094BF012000205DF808FB00BF4DF808EDA3
:10403800FFF7C8FF34BF012000205DF808FB00BF70
:104048004FEA4002B2F1FE4F0FD34FF09E03B3EB9D
:1040580012620DD94FEA002343F0004310F0004FDD
:1040680023FA02F018BF404270474FF00000704733
:1040780012F1610F01D1420205D110F0004008BFD2
:104088006FF0004070474FF000007047094B70B563
:104098001C680646256C3DB91A20FDF77BFC1A22E0
:1040A8002064294600F047F9216C3046BDE870408D
:1040B80000F002B8D803002010B50C46416986B05C
:1040C80001F26C71036982690491016803EB43038F
:1040D8000391416802EB4202029181680191C16833
:1040E8002046009104490B4404490A440449FDF759
:1040F80071FC204606B010BDB56D0A08A06D0A080F
:10410800D96D0A080A22002101F066B810B5054CDD
:1041180013462CB10A4601460220AFF3008010BDB9
:10412800204610BD0000000038B5074B05461C6846
:10413800E36B1BB92420FDF72DFCE063E16B2846F7
:10414800BDE8384000F002B8D80300202DE9F0415E
:104158000C46804601F064FE21460746404601F0C1
:1041680063FE4669044606F26C76B30705D16422FD
:1041780096FBF2F302FB13634BB94FF4C87596FB39
:10418800F5F305FB1365B5FA85F35B0900E0012338
:104198005F4A302505FB032501F058F901F058F96D
:1041A8005C4B1B68F3B17B689E4205D13968D8F82F
:1041B8000030FA6941B90AE0304601F09FF800285A
:1041C800F4D14FF0FF330DE0934208DB01E0934256
:1041D80007DABA6B9342ACBF0023012302E0002345
:1041E80000E001232362236A3C20012B0CBFF96BFA
:1041F800396A4FF4616391FBF3F603FB161393FBE3
:10420800F0F200FB123061682368891AA2681B1A51
:10421800921B3B2B23606160A26003DD013161606A
:104228003C3B04E0002B03DA013961603C33236036
:1042380063683B2B03DD0132A2603C3B04E0002BAA
:1042480003DA013AA2603C336360A368172B22DDCE
:10425800E269183B0132E261A269A3600132062AD1
:10426800C8BF0022A261E26823690132E26055F802
:1042780023108A4246DD01330C2B08BF6369A2EB89
:104288000102E26005BF013300222361226104BFFD
:104298006361E26136E0002B34DAE2691833013AEF
:1042A800E261A269A360013A48BF0622A261E268FE
:1042B800013AE26032BB2369013B01D423611DE06E
:1042C8000B23236163695A1E12F0030F626103F224
:1042D8006B7305D1642193FBF1F201FB12324AB9E9
:1042E8004FF4C87193FBF1F201FB1233B3FA83F375
:1042F8005B0900E0012303F5B673E361236955F810
:104308002330E36001F0A3F82046BDE8F08100BF48
:10431800686F0A08000B002000487047DC03002083
:1043280010B5431E0A44914204D011F8014B03F81A
:10433800014FF8E710BD03460244934202D003F848
:10434800011BFAE77047000038B5124B05461C6898
:10435800A36BD3B91820FDF71DFB43F20E33A063FE
:1043680003804AF6CD33438041F2342383804EF2F2
:104378006D63C3804DF6EC630381052343810B23F2
:10438800838101220023C0E90423A36B00221D615D
:104398005A6138BDD803002010F8012B11F8013BF1
:1043A800012A28BF9A42F7D0D01A7047034611F85D
:1043B800012B03F8012B002AF9D17047024B014663
:1043C800186800F003B800BFD803002070B506468F
:1043D80008460C4600F00DF8451C29463046FDF706
:1043E80019FB064618B12A462146FFF799FF3046C1
:1043F80070BD034613F8012B002AFBD1181A0138A7
:10440800704730B582B1451E013915F8013F11F8E2
:10441800014FA34206D1EC431444E04201D0002BE3
:10442800F3D11C46181B30BD104630BD034610B5ED
:1044380042B111F8014B013A03F8014B002CF7D1B6
:104448001A4400E010BD934202D003F8014BFAE78A
:1044580010BD2DE9F0410F46904602F041F80446A0
:104468000D46B8F1000F11D0C7F30A53C3F16B031F
:10447800002B0BDD1B0503F17F55002405F54015C6
:1044880022462B46FEF7C0FFBDE8F08120462946AC
:10449800BDE8F081000000002DE9F04F82460C468F
:1044A8009DB00023139218934FF000084FF00009B5
:1044B8001791179B1A780D2A05D8092A13D2002AB2
:1044C80000F0AD8112E02B2A04D02D2A04D0202A36
:1044D8000CD108E0002200E001220C925A1C17922D
:1044E8005B782BB99BE101331793E2E700230C9328
:1044F800179D2B78302B5CD16B78582B01D0782BFB
:104508004CD10C9BA84A019318AB009317A919AB7F
:10451800504601F06EF910F00706044600F0858554
:10452800062E05D10135002317950C9300F07DBDAB
:10453800189A3AB135211AA802F0B9F818995046D4
:1045480001F03DFD062E22D8DFE806F0040D08181C
:104558001D0D04004FF00009C84618E0DDF868801A
:10456800DDF86C9013E01B9B199A23F4801302F278
:104578003342DDF8688043EA025908E0DFF82C92FC
:104588004FF0000803E06FF000494FF0FF382107B3
:1045980040F14B8549F0004900F047BD179B5A1C74
:1045A80017925B78302BF9D0002B00F03E85012361
:1045B80000E000230593179B0A22069300239B46DD
:1045C80002930493179D2E78A6F13003D9B20929D6
:1045D80011D8BBF1080FD5BF0499029902FB01332A
:1045E80002FB013305F10105D4BF049302930BF1DB
:1045F800010B1795E6E75046FFF78EFE0768504611
:10460800FFF78AFE0068FFF7F4FE3946024628469F
:10461800FFF7F7FE074628B1002033465D460246FD
:1046280001465AE05046FFF777FE0068FFF7E1FEC3
:10463800179B1A1817921B5CBBF1000F45D15846FF
:10464800302B05D1179B01305A1C17925B78F7E77E
:10465800A3F13102082A46D8179A0692024600208A
:104668000546303B00F1010129D00A44294605EBF3
:10467800000C0A2661450FD0013101F1FF3EBEF161
:10468800080F03DC049F77430497F3E71029DEBF84
:10469800029F77430297EDE72844082800F10105B7
:1046A80005DC04980A2101FB0033049306E0102D71
:1046B800DFBF02980A2101FB003302930021179BF8
:1046C800581C17905B78084602E05D4638463A4623
:1046D800A3F130010929C4D90121652B01D0452B4B
:1046E8004FD16DB904E0652B40F0AD840022012163
:1046F80028B9059B002B00F09280054600E00025B4
:10470800179C631C179363782B2B06D02D2B02D094
:104718000026039606E0012300E000230393A31C70
:104728001793A378A3F13006092E29D8302B04D18A
:10473800179B5E1C17965B78F8E7A3F13106082EE5
:104748001FD8A3F1300E179B1F46179B5E1C1796A8
:104758005B78A3F1300CBCF1090F05D80A2606FBDB
:104768000E3EAEF1300EF0E7F61B082E44F61F663B
:1047780002DC7645A8BF7646039F1FB1764201E06A
:1047880017940026002D52D1002840F04E84059A37
:10479800002A40F04A84002941D14E2B20D007DC62
:1047A800492B0AD03BE000BFC86F0A080000F07F21
:1047B800692B02D06E2B13D031E0AA4917A801F05B
:1047C80049FA60B3179BA849013B17A8179301F052
:1047D80041FA10B9179B01331793DFF8A8921AE032
:1047E800A24917A801F036FAC8B1179B1B78282BE5
:1047F8000FD11AAA9E4917A801F03FFA052808D137
:104808001B9BDDF8688043F0FF4949F4E00900F09C
:104818000CBCDFF874924FF0000800F006BC139B44
:104828001794002B00F00C8400230C93FFE32C4614
:10483800BBF1000F08BFAB460498102DA8BF102489
:10484800B71AFEF76BFD092C8046894613DD894BA4
:1048580003EBC40353E91223FEF7D6FD8046029802
:104868008946FEF75BFD02460B4640464946FEF781
:1048780019FC804689460F2D33DC002F00F0D583C4
:1048880022DD162F07DC7B4D424605EBC7014B4660
:10489800D1E9000113E0C5F125039F4221DC754CE5
:1048A800C5F10F0504EBC5017D1B4246D1E90001A6
:1048B8004B4604EBC504FEF7A7FDD4E90023FEF739
:1048C800A3FD80468946B0E317F1160F09DB694D51
:1048D8004046A5EBC703D3E900234946FEF7BEFED1
:1048E800EFE72C1B3C44002C5DDD14F00F010AD0CF
:1048F800604B424603EBC101D1E900014B46FEF78C
:1049080083FD8046894634F00F0400F0C180B4F579
:104918009A7F0FDD4FF0000BCDF808B0CDF814B03A
:10492800CDF810B02223CAF80030DFF858914FF0C4
:10493800000889E14046494600234F4E241102935E
:10494800012C0CDDE20704D5D6E90023FEF75CFD57
:104958000123029A6410013202920836F0E70BB183
:1049680080468946444B029AA9F1547903EBC20167
:10497800D1E9000142464B46FEF746FD21F00043CF
:1049880089460A461B0D3D491B058B428046C1D806
:10499800A1F580118B4286BFDFF8F0904FF0FF3809
:1049A80002F1547974E073D0644214F00F020AD013
:1049B800304B404603EBC2034946D3E90023FEF7D8
:1049C8004DFE80468946241162D01F2C08DD4FF029
:1049D800000BCDF808B0CDF814B0CDF810B02CE12C
:1049E8004046494614F0100F0CBF00236A23244E9A
:1049F80003930023002C09DDE20704D5D6E9002340
:104A0800FEF702FD012364100836F3E70BB1804678
:104A18008946039BEBB1C9F30A53C3F16B03002B1F
:104A2800494616DD1F2B0EDD342BDEBF203B4FF031
:104A3800FF3202FA03F34FF00008CCBF4FF05C7965
:104A480003EA010905E04FF0FF3202FA03F303EA33
:104A580008080022002340464946FEF73DFF00288B
:104A6800B5D117E0DC6F0A08DF6F0A08E56F0A089E
:104A7800E86F0A0868700A0830710A080000A07C0C
:104A880000700A080000F07F0000F8FFFFFFEF7FCA
:104A980000230393049B5A46009306992B465046DD
:104AA80001F0DFFA059000283FF434AF002FC7F17A
:104AB8000003A8BF00230D934FF0000B27EAE7730C
:104AC8001293CDF808B0059B5046596801F042FA98
:104AD800049000283FF426AF059B0C301A6903F1B7
:104AE8000C0102329200FFF71BFC1AAB019319ABC1
:104AF800009342464B465046CDE9088901F061FDD6
:104B0800189000283FF40EAF0121504601F034FB05
:104B1800029000283FF406AF199B0399002BACBF05
:104B28000D9A129A1A9CACBFD618D21AA3EB01039D
:104B38002344B14903F1FF33ACBF129A0D9E8B4257
:104B4800C4F1360480F28580C91A1F29C8BFAB4D4D
:104B58004FF00107D4BF07FA01F3ED1AA4EB0104E3
:104B6800D9BF0793002507FA05F507973719039B5F
:104B7800BE4214441C443346A8BF3B46A342A8BFC8
:104B88002346002BC2BFFF1AE41AF61A0D9B002B0E
:104B980063D1002F7ADC129B002B40F08180002C1F
:104BA80000F38880002E00F38F80049A18995046ED
:104BB80001F037FC834600283FF4B4AEC3680024F4
:104BC800C4600299069301F010FCA04280F28B8029
:104BD800069B002B40F00282B8F1000F40F0FE81E6
:104BE800C9F31303002B40F0F98129F000431B0D92
:104BF8001B05B3F1D66F40F2F181DBF81430002BBE
:104C08006CD059460122504601F09EFB029983461A
:104C180001F0EBFB002840F3E18129F00043039AFF
:104C28001B0D1B05002A00F08D80B3F1D66F00F331
:104C38008980B3F15C7F00F3D38122234FF0000811
:104C48004FF00009CAF80030059B002B40F0D981CD
:104C5800EBE101230025079388E71A46029950469D
:104C680001F024FB029000283FF45CAE0146189A3C
:104C7800504601F08AFA069000283FF453AE18997E
:104C8800504601F09CF9069B189382E73A4618991A
:104C9800504601F059FB189000287FF47CAF41E69C
:104CA800129A0499504601F001FB049000287FF401
:104CB80076AF37E622460499504601F045FB04904A
:104CC80000287FF46FAF2DE632460299504601F076
:104CD8003BFB029000287FF468AF23E6DBF8103036
:104CE800012B8EDC7AE161D1069AC9F3130322B352
:104CF80043494A468B422ED1039B414663B1414BFF
:104D08001340B3F1D46F07D81B0DC3F16B034FF0F9
:104D1800FF3000FA03F301E04FF0FF338B421AD162
:104D280039498A4202D101333FF4FCAD354B4FF08B
:104D38000008134003F5801950E163B9B8F1000F7A
:104D480009D16AE7A3F580136FEA13594FF0FF38CA
:104D58006FEA095942E115B115EA090F02E0079B0C
:104D680013EA080F00F03A81069B039A4046494629
:104D780053B1FFF76EFB02460B46DDE90801FEF76B
:104D880091F98046894629E1FFF763FB02460B4605
:104D9800DDE90801FEF784F90022002380468946F0
:104DA800FEF79AFD00287FF448AF17E102995846AC
:104DB80001F055FC00224FF0804306460F46FEF7EF
:104DC8009FFD00283FD0069B13B100260F4F10E02F
:104DD800B8F1000F03D1C9F313033BB91AE0B8F1D6
:104DE800010F03D1B9F1000F3FF427AF084F002698
:104DF8000024064D3CE000BF02FCFFFFE2FBFFFF82
:104E0800FFFF0F000000F07FFFFFEF7F0000F03F83
:104E18000000F0BF00229A4B30463946FEF766FD87
:104E280040B90022974B30463946FEF7EDFA044662
:104E38000D4601E0069C934D05F10043149415932B
:104E4800DDE9146714E08F4B002230463946FEF73F
:104E5800DBFA069B04460D4623B901F100430E9088
:104E68000F9303E002460B46CDE90E23DDE90E67FA
:104E780029F000431B0D1B050793079A824B9A42A2
:104E88002BD1DDE90823A9F1547940464946CDE9FB
:104E98000A2301F025FB02460B4630463946FEF749
:104EA800B3FA42464B46FEF7FDF821F000431B0DCE
:104EB800764A1B05934280460CD9754B0B9A9A4249
:104EC80003D10A9B01333FF42DADDFF8C4914FF0B5
:104ED800FF3872E001F1547939E0039B3BB3079B3B
:104EE800B3F1D46F23D85EA3D3E900232046294623
:104EF800FEF706FDB8B129462046FEF75DFD0028FD
:104F080008BF0120FEF70AFA069B04460D4623B99E
:104F180001F100431090119303E002460B46CDE9DE
:104F28001023DDE91067079A07F1D6639F1ADDE9B8
:104F3800080101F0D5FA02460B4630463946FEF71D
:104F480063FADDE90823FEF7ADF880468946039B3E
:104F58009BBB29F000431B0D079A1B059A424E463E
:104F68002BD129462046FEF7FFFCFEF7E7F90B4652
:104F7800024629462046FEF793F8069B04460D464E
:104F88002BB9B8F1000F02D1C9F313067EB136A3CD
:104F9800D3E9002320462946FEF7A8FC88BB34A3A2
:104FA800D3E9002320462946FEF7BEFC04E032A3DD
:104FB800D3E90023FEF79AFC18BB1899504600F075
:104FC800FEFF0499504600F0FAFF0299504600F09F
:104FD800F6FF5946504600F0F2FF74E5039B83B193
:104FE8002C4B40460B9300230A934946DDE90A23DC
:104FF800FEF70AFA8046894619B910B92223CAF879
:1050080000301899504600F0DAFF0499504600F035
:10501800D6FF0299504600F0D2FF0599504600F09D
:10502800CEFF5946504600F0CAFF139B13B1179B99
:10503800139A13600C9B1BB1424609F1004307E029
:1050480042464B4604E000252A460121FFF747BBAC
:10505800104619461DB0BDE8F08F00BFAFF30080C1
:105068000000C0FFFFFFDF419535A094FFFFDF3F41
:1050780035E5AF350000E03F9535A094FFFFCF3F01
:105088000000F03F0000E03F0000E07FFFFF9F7C52
:10509800FFFFEF7F0000503938B50B4B0A46014639
:1050A8001868FFF7F9F902460B4604460D46FEF765
:1050B80045FC20B10020BDE8384001F043BB204644
:1050C8002946FEF799FC38BDD80300202DE9F047A2
:1050D8000F4680463F48D0F800903D4615F8014BF2
:1050E80009EB0400407800F0080000F0FF0608B162
:1050F8002F46F2E72D2C03D1BD1C7C78012603E056
:105108002B2C04BF7C78BD1C13B1102B0AD15BE09B
:10511800302C57D1287800F0DF0058284DD16C7812
:1051280010230235002E14BF4FF0004C6FF0004CD6
:10513800BCFBF3FA0027384603FB1ACC09EB040E34
:105148009EF801E01EF0040F01D0303C0BE01EF089
:10515800030E1BD0BEF1010F0CBF4FF0370E4FF0FE
:10516800570ECEEB0404A34210DDB7F1FF3F0AD07F
:10517800504506D801D1644503DC03FB00400127F4
:1051880001E04FF0FF3715F8014BD7E77B1C0CD136
:10519800002E4FF0220314BF4FF000406FF0004084
:1051A800C8F800302AB9BDE8F08706B1404272B1AC
:1051B80007B1691E1160BDE8F0873024002BB1D11A
:1051C8000823AFE70A23ADE7302CA3D0AAE7BDE850
:1051D800F08700BF7403002013460A4601460248C0
:1051E8000068FFF773BF00BFD80300202DE9F04720
:1051F8000E4680463B48D0F80090354615F8014BDE
:1052080009EB0400407800F0080000F0FF0708B13F
:105218002E46F2E72D2C03D1B51C7478012703E044
:105228002B2C04BF7478B51C13B1102B0AD153E092
:10523800302C4FD1287800F0DF00582845D16C7801
:10524800102302354FF0FF3CBCFBF3FC03FB0CFAC8
:1052580000266FEA0A0A304609EB040E9EF801E0C0
:105268001EF0040F01D0303C0BE01EF0030E1AD0E4
:10527800BEF1010F0CBF4FF0370E4FF0570ECEEBBB
:105288000404A3420FDD002E08DB604506D801D1D7
:10529800544503DC03FB0040012601E04FF0FF36D4
:1052A80015F8014BD8E7002E07DA2223C8F800309A
:1052B8004FF0FF302AB9BDE8F08707B1404272B11C
:1052C80006B1691E1160BDE8F0873024002BB9D102
:1052D8000823B7E70A23B5E7302CABD0B2E7BDE81F
:1052E800F08700BF7403002013460A4601460248AF
:1052F8000068FFF77BBF00BFD80300202DE9F74FF8
:10530800044600F08DFD40F2B1739C4240F3968054
:1053180040F26D156FF4F663E318A4F2B2729B10B5
:1053280005FB0235A4F26D726FF0630392FBF3F391
:105338006FF4C8622B44A5184FF4C87294FBF2F7B7
:1053480095FBF2F502FB17471D44642394FBF3F623
:10535800B7FA87FE014603FB164600F138030193AE
:1053680004F0030344604FEA5E1E00934FF0070CFD
:105378000B7A4A2B0ED14B69009AEC1802B906B980
:1053880027B93B2BD4BF0023012300E0002323448B
:10539800013B3FE0442B02D14B692B443AE0009B90
:1053A8002BB9002E0CBFF0464FF0010800E0F04684
:1053B800A946244B302202FB0838CC68A8F1040A1D
:1053C8000123A34204DA5AF804BF0133D944F8E7A9
:1053D80009F1040393FBFCFBCBEBCB0ACAEB030AF2
:1053E8004B69012CB8BF0124B3EB0A0A0B6904F11D
:1053F800804403F1FF3304F1FF3448BF0AF1070A80
:10540800C3EBC30358F824405344A34201DB073BD2
:10541800FBE74B448C690C4A02FB03430C6A2344A8
:1054280041F81C3F019B9942A2D1C369826B934208
:10543800ACBF002301230360012000E0002003B07B
:10544800BDE8F08F686F0A08805101007047704707
:10545800014B186800F002B8D80300202DE9F04F7E
:105468008DB0074600F0DCFCB0490446384600F031
:10547800CFFCAF4E054660B9AE4BAF4A1860AF4B94
:105488001860AF4B30681A605A60FCF78BFA3560C9
:1054980048E1316879B93068FCF784FA2846FEF7A4
:1054A800A8FF411C3846FCF7B5FA306048B12946D8
:1054B800FEF77CFF05E0FEF76FFF002800F0328161
:1054C800E9E72B780AAE3A2B08BF013533469D4AE7
:1054D8009D492846FCF786FA002840F323810A9B59
:1054E800EF18EB5C2D2B03D101374FF0FF3503E0AC
:1054F8002B2B08BF013701250DF1200A0DF11E0BDA
:105508004FF000080396CDF808A00196CDF800B03A
:10551800334607AA8D493846ADF81E80ADF820807D
:10552800FCF760FA404540F3FD80BDF81E20BDF849
:1055380020303C2101FB0233BDF81C204FF461618F
:1055480001FB02335D437F4B25627D4DDFF80892F6
:105558002B600A9B4A461F447B4933463846FCF772
:1055680041FA404508DC2B68226A6B60714B1A606F
:10557800724BC3F80080D5E00A9BC5F80490FD186B
:10558800FB5C2D2B03D101354FF0FF3703E02B2BAC
:1055980008BF013501270023ADF81C30ADF81E30D7
:1055A800ADF820300A930396CDF808A00196CDF8FF
:1055B80000B0334607AA65492846FCF713FA0028C5
:1055C80004DC236AA3F56163E3630EE0BDF81E20E3
:1055D800BDF820303C2101FB0233BDF81C204FF4FC
:1055E800616101FB02335F43E76327460A9B4FF083
:1055F80000091D442B782C2B08BF013595F8008035
:10560800B8F14D0F26D10DF12603029309AB009393
:105618000396019633460DF122024D492846FCF7C0
:10562800E1F903287ED1BDF822104B1E0B2B79D847
:10563800BDF82420531E042B74D8BDF82630062B41
:1056480070D887F80880F9603A617B610A9B05EB9E
:1056580003082AE0B8F14A0F06BF43460135442340
:105668000A220BA928460593FFF73EFEDDF82C8099
:10567800ADF826004545059B14D14D23B9F1000F1F
:1056880007D123720323E36002232361C4F8149033
:105698000BE084F824300B23A3620123E362002388
:1056A800236302E080B23B7278610223ADF81C30BC
:1056B8000023ADF81E30ADF820300A9398F800307A
:1056C8002F2B0BD10396CDF808A00196CDF800B08A
:1056D800334607AA1F494046FCF784F9BDF81E2047
:1056E800BDF820303C2101FB0233BDF81C204FF4EB
:1056F800616101FB0233BB610A9D09F10109B9F13E
:10570800020F454407F11C077FF474AF6068FFF788
:10571800F5FD226A074B1A60E36B9B1A074A18BF0C
:10572800012313600DB0BDE8F08F00BF28700A0890
:10573800FC0A0020040B00202B700A08000B002034
:1057480014040020EF0A00202F700A0852700A087B
:105758003E700A0851700A08E40A0020F0B506698C
:105768004B11B34200F1140527DA11F01F0105EBC4
:10577800860605EB830201D1294616E0141D55F86B
:1057880023202B46C1F1200ECA40B44209D2276813
:1057980007FA0EF73A4343F8042B54F8042BCA408F
:1057A800F3E71A6052B1043308E0B2420B4605D25F
:1057B80052F8043B41F8043BF7E72B465B1B9B1070
:1057C800036103B94361F0BDA0F13003092B01D88F
:1057D80020380AE0A0F16103052B01D8473804E01E
:1057E800A0F14103052B02D82738C0B2704700202A
:1057F80070472DE9F04F8BB08A4690460693029089
:10580800FEF78AFD03684FF0000B18460393FEF776
:10581800F0FD039B0190034413F8013C0793DAF869
:10582800003002331F4613F8010B302802D10BF168
:10583800010BF7E7FFF7C8FF0446E0B9019A03999F
:105848003846FEF7DEFD002834D1019BF85CFE18CF
:10585800FFF7BAFF80B3334618781F46302803F1A4
:105868000103F9D0FFF7B0FFB0FA80F534466D09AF
:105878004FF0010B01E000252C463A4616463078D9
:105888000132FFF7A1FF0028F8D1019A03993046A9
:10589800FEF7B7FD50B954B9019BF41822461646D5
:1058A80030780132FFF790FF0028F8D134B1A41BFB
:1058B800A40003E03E4600E0044601253378502B5F
:1058C80001D0702B2AD173782B2B08D02D2B03D025
:1058D800711C4FF0000905E04FF0010901E04FF09D
:1058E8000009B11C0878FFF76FFF431EDBB2182BC5
:1058F80014D8A0F1100211F8010FFFF765FF431E3D
:10590800DBB2182B04D80A2303FB0202103AF2E791
:10591800B9F1000F00D05242144400E03146CAF8F1
:1059280000102DB1BBF1000F14BF002006207CE150
:105938002946F31B013B072B02DD01315B10FAE717
:10594800029800F007FB4FF000090546CB46019B83
:1059580000F1140AC3F10103CDF810A00893B7426F
:105968002FD2731E0593079A16F8013C93420BD069
:10597800BBF1200F16D1049BC3F8009004334FF0FD
:1059880000090493CB460DE0059B089A13449F42F7
:10599800EED81846019A03990993FEF732FD099B40
:1059A80068B1E5E716F8010CFFF70EFF00F00F00ED
:1059B80000FA0BF0059B49EA00090BF1040B1E469F
:1059C800CDE7049840F8049BCAEB000080102861DA
:1059D8004701484600F083FBD8F80060381AB04207
:1059E80026DD871B3946284600F07BFEC8B17B1EA2
:1059F800591103F01F024FF001095AF8211009FA52
:105A080002F20A420ED04B4502DC4FF0020909E0CF
:105A1800B91E284600F065FE0028F6D04FF00309AD
:105A280000E0814639462846FFF798FE3C440CE0E2
:105A380009DA371A29463A46029800F085FC0546E5
:105A4800E41B00F1140A4FF00009D8F808309C4212
:105A580008DD0298294600F0B2FA149A0023136070
:105A6800A320E2E0D8F80400844253DA041BA642DB
:105A78002EDCD8F80C30022B1AD0032B1CD0012BAB
:105A88001DD1A6421BD1012E0BDCD8F80430069A92
:105A98006220136001232B61CAF80030149B1D603B
:105AA800C3E0711E284600F01CFE0028EDD106E078
:105AB800159B002BE9D002E0159B002BE5D102983D
:105AC800294600F07CFA149A002313605020ACE0B9
